{
  "contractName": "UserManager",
  "abi": [
    {
      "anonymous": false,
      "inputs": [
        {
          "indexed": true,
          "internalType": "address",
          "name": "userAddress",
          "type": "address"
        },
        {
          "indexed": false,
          "internalType": "string",
          "name": "fullName",
          "type": "string"
        },
        {
          "indexed": false,
          "internalType": "string",
          "name": "role",
          "type": "string"
        }
      ],
      "name": "UserRegistered",
      "type": "event"
    },
    {
      "inputs": [
        {
          "internalType": "address",
          "name": "",
          "type": "address"
        }
      ],
      "name": "users",
      "outputs": [
        {
          "internalType": "string",
          "name": "fullName",
          "type": "string"
        },
        {
          "internalType": "bytes32",
          "name": "emailHash",
          "type": "bytes32"
        },
        {
          "internalType": "bytes32",
          "name": "passwordHash",
          "type": "bytes32"
        },
        {
          "internalType": "string",
          "name": "role",
          "type": "string"
        }
      ],
      "stateMutability": "view",
      "type": "function",
      "constant": true
    },
    {
      "inputs": [
        {
          "internalType": "string",
          "name": "_fullName",
          "type": "string"
        },
        {
          "internalType": "bytes32",
          "name": "_emailHash",
          "type": "bytes32"
        },
        {
          "internalType": "bytes32",
          "name": "_passwordHash",
          "type": "bytes32"
        },
        {
          "internalType": "string",
          "name": "_role",
          "type": "string"
        }
      ],
      "name": "registerUser",
      "outputs": [],
      "stateMutability": "nonpayable",
      "type": "function"
    },
    {
      "inputs": [
        {
          "internalType": "bytes32",
          "name": "_emailHash",
          "type": "bytes32"
        },
        {
          "internalType": "bytes32",
          "name": "_passwordHash",
          "type": "bytes32"
        }
      ],
      "name": "authenticateUser",
      "outputs": [
        {
          "internalType": "bool",
          "name": "",
          "type": "bool"
        }
      ],
      "stateMutability": "view",
      "type": "function",
      "constant": true
    }
  ],
  "bytecode": "0x608060405234801561001057600080fd5b5061079a806100206000396000f3fe608060405234801561001057600080fd5b50600436106100415760003560e01c80634a0f846914610046578063a87430ba1461006f578063d043a41014610092575b600080fd5b61005961005436600461050e565b6100a7565b6040516100669190610611565b60405180910390f35b61008261007d3660046104e7565b6100e0565b604051610066949392919061061c565b6100a56100a036600461052f565b610218565b005b33600090815260208190526040812060010154831480156100d957503360009081526020819052604090206002015482145b9392505050565b6000602081905290815260409020805481906100fb90610713565b80601f016020809104026020016040519081016040528092919081815260200182805461012790610713565b80156101745780601f1061014957610100808354040283529160200191610174565b820191906000526020600020905b81548152906001019060200180831161015757829003601f168201915b50505050509080600101549080600201549080600301805461019590610713565b80601f01602080910402602001604051908101604052809291908181526020018280546101c190610713565b801561020e5780601f106101e35761010080835404028352916020019161020e565b820191906000526020600020905b8154815290600101906020018083116101f157829003601f168201915b5050505050905084565b604051602001610227906105fe565b604051602081830303815290604052805190602001208160405160200161024e91906105cf565b6040516020818303038152906040528051906020012014806102b9575060405160200161027a906105eb565b60405160208183030381529060405280519060200120816040516020016102a191906105cf565b60405160208183030381529060405280519060200120145b6102de5760405162461bcd60e51b81526004016102d590610686565b60405180910390fd5b33600090815260208190526040902080546102f890610713565b1590506103175760405162461bcd60e51b81526004016102d5906106ac565b6040805160808101825285815260208082018690528183018590526060820184905233600090815280825292909220815180519293919261035b92849201906103cd565b506020828101516001830155604083015160028301556060830151805161038892600385019201906103cd565b50506040513391507f92822564bab8864c3a47b34e8d23fbce5c46234eb5da261f94087b995ac0f33b906103bf9087908590610658565b60405180910390a250505050565b8280546103d990610713565b90600052602060002090601f0160209004810192826103fb5760008555610441565b82601f1061041457805160ff1916838001178555610441565b82800160010185558215610441579182015b82811115610441578251825591602001919060010190610426565b5061044d929150610451565b5090565b5b8082111561044d5760008155600101610452565b600082601f830112610476578081fd5b813567ffffffffffffffff808211156104915761049161074e565b604051601f8301601f1916810160200182811182821017156104b5576104b561074e565b6040528281528483016020018610156104cc578384fd5b82602086016020830137918201602001929092529392505050565b6000602082840312156104f8578081fd5b81356001600160a01b03811681146100d9578182fd5b60008060408385031215610520578081fd5b50508035926020909101359150565b60008060008060808587031215610544578182fd5b843567ffffffffffffffff8082111561055b578384fd5b61056788838901610466565b95506020870135945060408701359350606087013591508082111561058a578283fd5b5061059787828801610466565b91505092959194509250565b600081518084526105bb8160208601602086016106e3565b601f01601f19169290920160200192915050565b600082516105e18184602087016106e3565b9190910192915050565b661cdd1d59195b9d60ca1b815260070190565b663a32b0b1b432b960c91b815260070190565b901515815260200190565b60006080825261062f60808301876105a3565b856020840152846040840152828103606084015261064d81856105a3565b979650505050505050565b60006040825261066b60408301856105a3565b828103602084015261067d81856105a3565b95945050505050565b6020808252600c908201526b496e76616c696420726f6c6560a01b604082015260600190565b60208082526017908201527f5573657220616c72656164792072656769737465726564000000000000000000604082015260600190565b60005b838110156106fe5781810151838201526020016106e6565b8381111561070d576000848401525b50505050565b60028104600182168061072757607f821691505b6020821081141561074857634e487b7160e01b600052602260045260246000fd5b50919050565b634e487b7160e01b600052604160045260246000fdfea264697066735822122054772e42575b70a4e4bb19b6499eb85ddc51afb64f2b548a1cd8c05c44f2e25f64736f6c63430008000033",
  "immutableReferences": {},
  "source": "// SPDX-License-Identifier: MIT\r\npragma solidity ^0.8.0;\r\n\r\ncontract UserManager {\r\n    struct User {\r\n        string fullName;\r\n        bytes32 emailHash;\r\n        bytes32 passwordHash;\r\n        string role;\r\n    }\r\n\r\n    mapping(address => User) public users;\r\n\r\n    event UserRegistered(address indexed userAddress, string fullName, string role);\r\n\r\n    // Register a new user\r\n    function registerUser(string memory _fullName, bytes32 _emailHash, bytes32 _passwordHash, string memory _role) public {\r\n        require(\r\n            keccak256(abi.encodePacked(_role)) == keccak256(abi.encodePacked(\"teacher\")) || \r\n            keccak256(abi.encodePacked(_role)) == keccak256(abi.encodePacked(\"student\")),\r\n            \"Invalid role\"\r\n        );\r\n        require(bytes(users[msg.sender].fullName).length == 0, \"User already registered\");\r\n\r\n        users[msg.sender] = User(_fullName, _emailHash, _passwordHash, _role);\r\n        emit UserRegistered(msg.sender, _fullName, _role);\r\n    }\r\n\r\n    // Authenticate a user\r\n    function authenticateUser(bytes32 _emailHash, bytes32 _passwordHash) public view returns (bool) {\r\n        return (\r\n            users[msg.sender].emailHash == _emailHash &&\r\n            users[msg.sender].passwordHash == _passwordHash\r\n        );\r\n    }\r\n}\r\n",
  "sourcePath": "D:\\ubuntu\\meow\\pseudo\\blockchain\\contracts\\UserManager.sol",
  "compiler": {
    "name": "solc",
    "version": "0.8.0+commit.c7dfd78e.Emscripten.clang"
  },
  "schemaVersion": "3.4.16",
  "updatedAt": "2024-10-23T16:08:46.685Z",
  "networkType": "ethereum",
  "devdoc": {
    "kind": "dev",
    "methods": {},
    "version": 1
  },
  "userdoc": {
    "kind": "user",
    "methods": {},
    "version": 1
  }
}