{
  "contractName": "UserManager",
  "abi": [
    {
      "anonymous": false,
      "inputs": [
        {
          "indexed": true,
          "internalType": "address",
          "name": "userAddress",
          "type": "address"
        },
        {
          "indexed": false,
          "internalType": "string",
          "name": "fullName",
          "type": "string"
        },
        {
          "indexed": false,
          "internalType": "string",
          "name": "role",
          "type": "string"
        }
      ],
      "name": "UserRegistered",
      "type": "event"
    },
    {
      "inputs": [
        {
          "internalType": "address",
          "name": "",
          "type": "address"
        }
      ],
      "name": "users",
      "outputs": [
        {
          "internalType": "string",
          "name": "fullName",
          "type": "string"
        },
        {
          "internalType": "bytes32",
          "name": "emailHash",
          "type": "bytes32"
        },
        {
          "internalType": "bytes32",
          "name": "passwordHash",
          "type": "bytes32"
        },
        {
          "internalType": "string",
          "name": "role",
          "type": "string"
        }
      ],
      "stateMutability": "view",
      "type": "function",
      "constant": true
    },
    {
      "inputs": [
        {
          "internalType": "string",
          "name": "_fullName",
          "type": "string"
        },
        {
          "internalType": "bytes32",
          "name": "_emailHash",
          "type": "bytes32"
        },
        {
          "internalType": "bytes32",
          "name": "_passwordHash",
          "type": "bytes32"
        },
        {
          "internalType": "string",
          "name": "_role",
          "type": "string"
        }
      ],
      "name": "registerUser",
      "outputs": [],
      "stateMutability": "nonpayable",
      "type": "function"
    },
    {
      "inputs": [
        {
          "internalType": "bytes32",
          "name": "_emailHash",
          "type": "bytes32"
        },
        {
          "internalType": "bytes32",
          "name": "_passwordHash",
          "type": "bytes32"
        }
      ],
      "name": "authenticateUser",
      "outputs": [
        {
          "internalType": "bool",
          "name": "",
          "type": "bool"
        }
      ],
      "stateMutability": "view",
      "type": "function",
      "constant": true
    }
  ],
  "bytecode": "0x608060405234801561001057600080fd5b50610c07806100206000396000f3fe608060405234801561001057600080fd5b50600436106100415760003560e01c80634a0f846914610046578063a87430ba14610076578063d043a410146100a9575b600080fd5b610060600480360381019061005b9190610673565b6100c5565b60405161006d919061090b565b60405180910390f35b610090600480360381019061008b919061064a565b61015f565b6040516100a09493929190610926565b60405180910390f35b6100c360048036038101906100be91906106af565b61029f565b005b6000826000803373ffffffffffffffffffffffffffffffffffffffff1673ffffffffffffffffffffffffffffffffffffffff168152602001908152602001600020600101541480156101575750816000803373ffffffffffffffffffffffffffffffffffffffff1673ffffffffffffffffffffffffffffffffffffffff16815260200190815260200160002060020154145b905092915050565b600060205280600052604060002060009150905080600001805461018290610b02565b80601f01602080910402602001604051908101604052809291908181526020018280546101ae90610b02565b80156101fb5780601f106101d0576101008083540402835291602001916101fb565b820191906000526020600020905b8154815290600101906020018083116101de57829003601f168201915b50505050509080600101549080600201549080600301805461021c90610b02565b80601f016020809104026020016040519081016040528092919081815260200182805461024890610b02565b80156102955780601f1061026a57610100808354040283529160200191610295565b820191906000526020600020905b81548152906001019060200180831161027857829003601f168201915b5050505050905084565b6040516020016102ae906108f6565b60405160208183030381529060405280519060200120816040516020016102d591906108ca565b6040516020818303038152906040528051906020012014806103405750604051602001610301906108e1565b604051602081830303815290604052805190602001208160405160200161032891906108ca565b60405160208183030381529060405280519060200120145b61037f576040517f08c379a0000000000000000000000000000000000000000000000000000000008152600401610376906109b0565b60405180910390fd5b60008060003373ffffffffffffffffffffffffffffffffffffffff1673ffffffffffffffffffffffffffffffffffffffff16815260200190815260200160002060000180546103cd90610b02565b90501461040f576040517f08c379a0000000000000000000000000000000000000000000000000000000008152600401610406906109d0565b60405180910390fd5b6040518060800160405280858152602001848152602001838152602001828152506000803373ffffffffffffffffffffffffffffffffffffffff1673ffffffffffffffffffffffffffffffffffffffff168152602001908152602001600020600082015181600001908051906020019061048a929190610515565b50602082015181600101556040820151816002015560608201518160030190805190602001906104bb929190610515565b509050503373ffffffffffffffffffffffffffffffffffffffff167f92822564bab8864c3a47b34e8d23fbce5c46234eb5da261f94087b995ac0f33b8583604051610507929190610979565b60405180910390a250505050565b82805461052190610b02565b90600052602060002090601f016020900481019282610543576000855561058a565b82601f1061055c57805160ff191683800117855561058a565b8280016001018555821561058a579182015b8281111561058957825182559160200191906001019061056e565b5b509050610597919061059b565b5090565b5b808211156105b457600081600090555060010161059c565b5090565b60006105cb6105c684610a21565b6109f0565b9050828152602081018484840111156105e357600080fd5b6105ee848285610ac0565b509392505050565b60008135905061060581610ba3565b92915050565b60008135905061061a81610bba565b92915050565b600082601f83011261063157600080fd5b81356106418482602086016105b8565b91505092915050565b60006020828403121561065c57600080fd5b600061066a848285016105f6565b91505092915050565b6000806040838503121561068657600080fd5b60006106948582860161060b565b92505060206106a58582860161060b565b9150509250929050565b600080600080608085870312156106c557600080fd5b600085013567ffffffffffffffff8111156106df57600080fd5b6106eb87828801610620565b94505060206106fc8782880161060b565b935050604061070d8782880161060b565b925050606085013567ffffffffffffffff81111561072a57600080fd5b61073687828801610620565b91505092959194509250565b61074b81610a8a565b82525050565b61075a81610a96565b82525050565b600061076b82610a51565b6107758185610a5c565b9350610785818560208601610acf565b61078e81610b92565b840191505092915050565b60006107a482610a51565b6107ae8185610a6d565b93506107be818560208601610acf565b80840191505092915050565b60006107d7600783610a6d565b91507f73747564656e74000000000000000000000000000000000000000000000000006000830152600782019050919050565b6000610817600c83610a5c565b91507f496e76616c696420726f6c6500000000000000000000000000000000000000006000830152602082019050919050565b6000610857600783610a6d565b91507f74656163686572000000000000000000000000000000000000000000000000006000830152600782019050919050565b6000610897601783610a5c565b91507f5573657220616c726561647920726567697374657265640000000000000000006000830152602082019050919050565b60006108d68284610799565b915081905092915050565b60006108ec826107ca565b9150819050919050565b60006109018261084a565b9150819050919050565b60006020820190506109206000830184610742565b92915050565b600060808201905081810360008301526109408187610760565b905061094f6020830186610751565b61095c6040830185610751565b818103606083015261096e8184610760565b905095945050505050565b600060408201905081810360008301526109938185610760565b905081810360208301526109a78184610760565b90509392505050565b600060208201905081810360008301526109c98161080a565b9050919050565b600060208201905081810360008301526109e98161088a565b9050919050565b6000604051905081810181811067ffffffffffffffff82111715610a1757610a16610b63565b5b8060405250919050565b600067ffffffffffffffff821115610a3c57610a3b610b63565b5b601f19601f8301169050602081019050919050565b600081519050919050565b600082825260208201905092915050565b600081905092915050565b6000610a8382610aa0565b9050919050565b60008115159050919050565b6000819050919050565b600073ffffffffffffffffffffffffffffffffffffffff82169050919050565b82818337600083830152505050565b60005b83811015610aed578082015181840152602081019050610ad2565b83811115610afc576000848401525b50505050565b60006002820490506001821680610b1a57607f821691505b60208210811415610b2e57610b2d610b34565b5b50919050565b7f4e487b7100000000000000000000000000000000000000000000000000000000600052602260045260246000fd5b7f4e487b7100000000000000000000000000000000000000000000000000000000600052604160045260246000fd5b6000601f19601f8301169050919050565b610bac81610a78565b8114610bb757600080fd5b50565b610bc381610a96565b8114610bce57600080fd5b5056fea2646970667358221220f15d3127343c007e52ac65c7f420dfe2ad4a5408e622d3af5c3022a58174bd0b64736f6c63430008000033",
  "immutableReferences": {},
  "source": "// SPDX-License-Identifier: MIT\r\npragma solidity ^0.8.0;\r\n\r\ncontract UserManager {\r\n    struct User {\r\n        string fullName;\r\n        bytes32 emailHash;\r\n        bytes32 passwordHash;\r\n        string role;\r\n    }\r\n\r\n    mapping(address => User) public users;\r\n\r\n    event UserRegistered(address indexed userAddress, string fullName, string role);\r\n\r\n    // Register a new user\r\n    function registerUser(string memory _fullName, bytes32 _emailHash, bytes32 _passwordHash, string memory _role) public {\r\n        require(\r\n            keccak256(abi.encodePacked(_role)) == keccak256(abi.encodePacked(\"teacher\")) || \r\n            keccak256(abi.encodePacked(_role)) == keccak256(abi.encodePacked(\"student\")),\r\n            \"Invalid role\"\r\n        );\r\n        require(bytes(users[msg.sender].fullName).length == 0, \"User already registered\");\r\n\r\n        users[msg.sender] = User(_fullName, _emailHash, _passwordHash, _role);\r\n        emit UserRegistered(msg.sender, _fullName, _role);\r\n    }\r\n\r\n    // Authenticate a user\r\n    function authenticateUser(bytes32 _emailHash, bytes32 _passwordHash) public view returns (bool) {\r\n        return (\r\n            users[msg.sender].emailHash == _emailHash &&\r\n            users[msg.sender].passwordHash == _passwordHash\r\n        );\r\n    }\r\n}\r\n",
  "sourcePath": "C:\\Users\\anshj\\OneDrive\\Desktop\\projects\\hwm\\blockchain\\contracts\\UserManager.sol",
  "compiler": {
    "name": "solc",
    "version": "0.8.0+commit.c7dfd78e.Emscripten.clang"
  },
  "schemaVersion": "3.4.16",
  "updatedAt": "2024-10-20T17:30:51.799Z",
  "networkType": "ethereum",
  "devdoc": {
    "kind": "dev",
    "methods": {},
    "version": 1
  },
  "userdoc": {
    "kind": "user",
    "methods": {},
    "version": 1
  }
}